:030000000209E909
:0C09E900787FE4F6D8FD75810C02080050
:1009BC00414443203D2000414449545941204120A9
:0709CC004E494A4156450067
:100800001209D37F801208F07BFF7A0979BC1209A4
:100810005E7F891208F07FDF1209277F43120927C4
:100820007FC21208F07BFF7A0979C312095ED29366
:10083000C2947F017E00120983D2942095FDC29359
:1008400085A0087F861208F0E50875F064842430DE
:10085000FF120927E50875F00A8475F00A84E5F0AF
:100860002430FF120927E50875F00A84E5F02430EA
:10087000FF120927AF087E00C3EF94647480948050
:100880005006D2B0C2B1801AC3EF9464EE64809473
:10089000804015D3EF9496EE64809480500AC2B0E5
:1008A000D2B1C2B2C2B38086C3EF9496EE64809494
:1008B000804016D3EF94C8EE64809480500BC2B091
:1008C000C2B1D2B2C2B302082EC3EF94C8EE6480A4
:1008D0009480500302082ED3EF94FFEE648094803E
:1008E000400302082EC2B0C2B1C2B2D2B302082E77
:1009D3007F057E001209837F281208F07F0C12081E
:0609E300F07F060208F09F
:1008F0008F09C290C291E50954F0F580D2927F052C
:100900007E00120983C2927F057E00120983E509E9
:10091000C454F0F580D2927F057E00120983C29202
:070920007F057E0002098340
:100927008F0CD290C291E50C54F0F580D2927F05DE
:100937007E00120983C2927F057E00120983E50CAF
:10094700C454F0F580D2927F057E00120983C292CB
:070957007F057E0002098309
:10095E008B098A0A890BAB09AA0AA90B1209A36093
:10096E0013050BE50B7002050A14F91209A3FF1209
:05097E00092780E222C0
:10098300E4FDFCC3ED9FEC9E5015E4FBFA0BBB00AA
:0F099300010ABA03F8BBE8F50DBD00010C80E4C2
:0109A2002232
:1009A300BB010689828A83E0225002E722BBFE0252
:0909B300E32289828A83E4932285
:00000001FF
