:030000000209A250
:0C09A200787FE4F6D8FD75810A02099503
:0D0995001208B212096B7E0012086E80F687
:10090500E4FDFCC3ED9FEC9E5015E4FBFA0BBB0028
:0F091500010ABA03F8BBE8F50DBD00010C80E440
:0109240022B0
:100955007F057E001209057F381209257F0C1209D3
:06096500257F06020925B2
:100925008F80C290C291D2927F057E00120905C2C6
:08093500927F057E0002090516
:10093D008F80D290C291D2927F057E00120905C29E
:08094D00927F057E00020905FE
:1008E0008B088A09890AAB08AA09A90A12080060BC
:1008F00013050AE50A7002050914F9120800FF122F
:05090000093D80E22228
:10098000414443203D2000414449545941204E49AF
:050990004A415645003C
:1008B2001209557F801209257BFF7A097980120877
:1008C200E07F891209257FDF12093D7F4312093D2E
:0E08D2007FC21209257BFF7A0979870208E0B0
:10096B00D293C2947F017E00120905D2942095FD8B
:04097B00C293AFA0D4
:01097F002255
:10086E008E088F097F86120925AE08AF097C007DA0
:10087E0064120819EF2430FF12093DAE08AF097C4F
:10088E00007D0A1208197E007F0ACFCDCFCECCCEC6
:10089E00120819EF2430FF12093DE509540A2430DD
:0408AE00FF02093DFF
:10080000BB010689828A83E0225002E722BBFE02F6
:09081000E32289828A83E4932229
:10081900BC000BBE0029EF8DF084FFADF022E4CCC3
:10082900F875F008EF2FFFEE33FEEC33FCEE9DEC8C
:10083900984005FCEE9DFE0FD5F0E9E4CEFD22EDD2
:10084900F8F5F0EE8420D21CFEADF075F008EF2F1C
:10085900FFED33FD4007985006D5F0F222C398FD0D
:050869000FD5F0EA22AA
:00000001FF
