:0300000002096F83
:0C096F00787FE4F6D8FD75810C020800CA
:10094200414443203D200041444954594120412023
:070952004E494A41564500E1
:100800001209597F801208767BFF7A097942120813
:10081000E47F891208767FDF1208AD7F431208ADAE
:100820007FC01208767BFF7A0979491208E4D293D7
:10083000C2947F017E00120909D2942095FDC293D3
:1008400085A0087F86120876E50875F06484243058
:10085000FF1208ADE50875F00A8475F00A84E5F02A
:100860002430FF1208ADE50875F00A84E5F0243065
:06087000FF1208AD80B884
:10090900E4FDFCC3ED9FEC9E5015E4FBFA0BBB0024
:0F091900010ABA03F8BBE8F50DBD00010C80E43C
:0109280022AC
:100959007F057E001209097F281208767F0C12088C
:06096900767F060208760D
:100876008F09C290C291E50954F0F580D2927F05A6
:100886007E00120909C2927F057E00120909E50958
:10089600C454F0F580D2927F057E00120909C292F7
:0708A6007F057E0002090935
:1008AD008F0CD290C291E50C54F0F580D2927F0559
:1008BD007E00120909C2927F057E00120909E50C1E
:1008CD00C454F0F580D2927F057E00120909C292C0
:0708DD007F057E00020909FE
:1008E4008B098A0A890BAB09AA0AA90B1209296088
:1008F40013050BE50B7002050A14F9120929FF12FE
:0509040008AD80E222B5
:10092900BB010689828A83E0225002E722BBFE02CC
:09093900E32289828A83E49322FF
:00000001FF
