:030000000209A74B
:0C09A700787FE4F6D8FD75810A02099AF9
:10098500414443203D2000414449545941204E49AA
:050995004A4156450037
:1008BA001209397D80E4FF1209557BFF7A0979858F
:1008CA001208F27D89E4FF1209557DDF7F011209C2
:1008DA00557D437F011209557DC2E4FF1209557BFC
:0808EA00FF7A09798C0208F283
:10097000D293C2947F017E00120919D2942095FD72
:04098000C293AFA0CF
:010984002250
:10086E008E088F097D86E4FF120955AE08AF097C0C
:10087E00007D64120819EF2430FD7F01120955AE78
:10088E0008AF097C007D0A1208197E007F0ACFCDC1
:10089E00CFCECCCE120819EF2430FD7F01120955B0
:0C08AE00E509540A2430FD7F01020955C1
:0D099A001208BA1209707E0012086E80F675
:10091900E4FDFCC3ED9FEC9E5015E4FBFA0BBB0014
:0F092900010ABA03F8BBE8F50DBD00010C80E42C
:01093800229C
:100939007F057E001209197D38E4FF1209557D0CE7
:0C094900E4FF1209557D06E4FF02095589
:100955008D80EF24FF9290C291D2927F057E001286
:0B0965000919C2927F057E00020919EB
:1008F2008B088A09890AAB08AA09A90A12080060AA
:1009020015050AE50A7002050914F9120800FD7FAF
:070912000112095580E022EB
:10080000BB010689828A83E0225002E722BBFE02F6
:09081000E32289828A83E4932229
:10081900BC000BBE0029EF8DF084FFADF022E4CCC3
:10082900F875F008EF2FFFEE33FEEC33FCEE9DEC8C
:10083900984005FCEE9DFE0FD5F0E9E4CEFD22EDD2
:10084900F8F5F0EE8420D21CFEADF075F008EF2F1C
:10085900FFED33FD4007985006D5F0F222C398FD0D
:050869000FD5F0EA22AA
:00000001FF
