:03000000020A31C0
:0C0A3100787FE4F6D8FD75810C02080007
:100A0400414443203D200041444954594120412060
:070A14004E494A415645001E
:10080000120A1B7F801209387BFF7A0A79041209C9
:10081000A67F891209387FDF12096F7F4312096FA3
:100820007FC01209387BFF7A0A790B1209A67589F5
:1008300001D2B7D296C297D2B1C2B0D293C2947F3E
:10084000017E001209CBD2942095FDC293858008C9
:100850007F86120938E50875F064842430FF120998
:100860006FE50875F00A8475F00A84E5F02430FF1E
:1008700012096FE50875F00A84E5F02430FF1209CB
:100880006FAF087E00D3E49F7480F898500CEF940B
:100890000574809480500302091CAF087E00C37465
:1008A000059F7480F8985013EF945574809480508D
:1008B0000A120A62D2B7120A74801FAF087E00C300
:1008C00074559F7480F8985018EF94B47480948095
:1008D000500F120A59D2B7120A7B120A3DC2B780D2
:1008E00040AF087E00C374B59F7480F8985016EF2F
:1008F00094FA74809480500D120A50D2B7120A8272
:10090000120A3D801CAF087E00D374FB9F7480F8F0
:1009100098500EEF94FF748094805005120A47C2DD
:10092000B720B206120A6B02083B30B20302083B42
:08093000120A47C2B702083B9E
:070A7400758CB7758AFF22A3
:070A7B00758C6F758AFE22E5
:070A8200758C27758AFC2228
:0A0A3D00D28C308DFDC28CC28D22D8
:090A4700C2B6C2B5C2B4D2B3229A
:090A5000C2B6C2B5D2B4C2B32291
:090A5900C2B6D2B5C2B4C2B32288
:090A6200D2B6C2B5C2B4C2B3227F
:090A6B00B296B297B2B1B2B0220A
:1009CB00E4FDFCC3ED9FEC9E5015E4FBFA0BBB0062
:0F09DB00010ABA03F8BBE8F50DBD00010C80E47A
:0109EA0022EA
:100A1B007F057E001209CB7F281209387F0C120943
:060A2B00387F06020938C5
:100938008F09C290C291E50954F0F5A0D2927F05C3
:100948007E001209CBC2927F057E001209CBE50911
:10095800C454F0F5A0D2927F057E001209CBC29252
:070968007F057E000209CBB0
:10096F008F0CD290C291E50C54F0F5A0D2927F0576
:10097F007E001209CBC2927F057E001209CBE50CD7
:10098F00C454F0F5A0D2927F057E001209CBC2921B
:07099F007F057E000209CB79
:1009A6008B098A0A890BAB09AA0AA90B1209EB6003
:1009B60013050BE50B7002050A14F91209EBFF1279
:0509C600096F80E22230
:1009EB00BB010689828A83E0225002E722BBFE020A
:0909FB00E32289828A83E493223D
:00000001FF
