:030000000209D220
:0C09D200787FE4F6D8FD75811F0209C58E
:10099E00003F0006005B004F0066006D007D000703
:0409AE00007F006F57
:0D09C5001209B285A008AF081208F680F3F1
:1009B200D293C2947F017E0012097ED2942095FDCB
:0309C200C29322BB
:0208F6008F0968
:1008F800780A7C007D007BFF7A09799E7E007F1450
:100908001208D0E4F51EF51FE50975F0648425E0AA
:10091800240AF808E6F5B0D290C291C2927F017E0F
:100928000012097EE50975F00A8475F00A84E5F07D
:1009380025E0240AF808E6F5B0C290D291C2927F69
:10094800017E0012097EE50975F00A84E5F025E0CC
:10095800240AF808E6F5B0C290C291D2927F017ECF
:100968000012097E051FE51F7002051EC39432E5BB
:050978001E94004093F5
:01097D002257
:10097E00E4FDFCC3ED9FEC9E5015E4FBFA0BBB00AF
:0F098E00010ABA03F8BBE8F50DBD00010C80E4C7
:01099D002237
:10080000E709F608DFFA8046E709F208DFFA803EDA
:1008100088828C83E709F0A3DFFA8032E309F608C7
:10082000DFFA8078E309F208DFFA807088828C832F
:10083000E309F0A3DFFA806489828A83E0A3F608E3
:10084000DFFA805889828A83E0A3F208DFFA804CBD
:1008500080D280FA80C680D4806980F28033801094
:1008600080A680EA809A80A880DA80E280CA8033FD
:1008700089828A83ECFAE493A3C8C582C8CCC58375
:10088000CCF0A3C8C582C8CCC583CCDFE9DEE78045
:100890000D89828A83E493A3F608DFF9ECFAA9F0C4
:1008A000EDFB2289828A83ECFAE0A3C8C582C8CC1A
:1008B000C583CCF0A3C8C582C8CCC583CCDFEADE33
:1008C000E880DB89828A83E493A3F208DFF980CC95
:1008D00088F0EF60010E4E60C388F0ED2402B4048E
:1008E0000050B9F582EB2402B4040050AF23234535
:0608F00082239008507302
:00000001FF
